{
  "contractName": "Collectible",
  "abi": [
    {
      "inputs": [],
      "stateMutability": "nonpayable",
      "type": "constructor"
    },
    {
      "anonymous": false,
      "inputs": [
        {
          "indexed": true,
          "internalType": "address",
          "name": "owner",
          "type": "address"
        },
        {
          "indexed": true,
          "internalType": "address",
          "name": "approved",
          "type": "address"
        },
        {
          "indexed": true,
          "internalType": "uint256",
          "name": "tokenId",
          "type": "uint256"
        }
      ],
      "name": "Approval",
      "type": "event"
    },
    {
      "anonymous": false,
      "inputs": [
        {
          "indexed": true,
          "internalType": "address",
          "name": "owner",
          "type": "address"
        },
        {
          "indexed": true,
          "internalType": "address",
          "name": "operator",
          "type": "address"
        },
        {
          "indexed": false,
          "internalType": "bool",
          "name": "approved",
          "type": "bool"
        }
      ],
      "name": "ApprovalForAll",
      "type": "event"
    },
    {
      "anonymous": false,
      "inputs": [
        {
          "indexed": true,
          "internalType": "address",
          "name": "from",
          "type": "address"
        },
        {
          "indexed": true,
          "internalType": "address",
          "name": "to",
          "type": "address"
        },
        {
          "indexed": true,
          "internalType": "uint256",
          "name": "tokenId",
          "type": "uint256"
        }
      ],
      "name": "Transfer",
      "type": "event"
    },
    {
      "inputs": [
        {
          "internalType": "address",
          "name": "to",
          "type": "address"
        },
        {
          "internalType": "uint256",
          "name": "tokenId",
          "type": "uint256"
        }
      ],
      "name": "approve",
      "outputs": [],
      "stateMutability": "nonpayable",
      "type": "function"
    },
    {
      "inputs": [
        {
          "internalType": "address",
          "name": "owner",
          "type": "address"
        }
      ],
      "name": "balanceOf",
      "outputs": [
        {
          "internalType": "uint256",
          "name": "",
          "type": "uint256"
        }
      ],
      "stateMutability": "view",
      "type": "function",
      "constant": true
    },
    {
      "inputs": [
        {
          "internalType": "uint256",
          "name": "tokenId",
          "type": "uint256"
        }
      ],
      "name": "getApproved",
      "outputs": [
        {
          "internalType": "address",
          "name": "",
          "type": "address"
        }
      ],
      "stateMutability": "view",
      "type": "function",
      "constant": true
    },
    {
      "inputs": [
        {
          "internalType": "address",
          "name": "owner",
          "type": "address"
        },
        {
          "internalType": "address",
          "name": "operator",
          "type": "address"
        }
      ],
      "name": "isApprovedForAll",
      "outputs": [
        {
          "internalType": "bool",
          "name": "",
          "type": "bool"
        }
      ],
      "stateMutability": "view",
      "type": "function",
      "constant": true
    },
    {
      "inputs": [],
      "name": "name",
      "outputs": [
        {
          "internalType": "string",
          "name": "",
          "type": "string"
        }
      ],
      "stateMutability": "view",
      "type": "function",
      "constant": true
    },
    {
      "inputs": [
        {
          "internalType": "uint256",
          "name": "tokenId",
          "type": "uint256"
        }
      ],
      "name": "ownerOf",
      "outputs": [
        {
          "internalType": "address",
          "name": "",
          "type": "address"
        }
      ],
      "stateMutability": "view",
      "type": "function",
      "constant": true
    },
    {
      "inputs": [
        {
          "internalType": "address",
          "name": "from",
          "type": "address"
        },
        {
          "internalType": "address",
          "name": "to",
          "type": "address"
        },
        {
          "internalType": "uint256",
          "name": "tokenId",
          "type": "uint256"
        }
      ],
      "name": "safeTransferFrom",
      "outputs": [],
      "stateMutability": "nonpayable",
      "type": "function"
    },
    {
      "inputs": [
        {
          "internalType": "address",
          "name": "from",
          "type": "address"
        },
        {
          "internalType": "address",
          "name": "to",
          "type": "address"
        },
        {
          "internalType": "uint256",
          "name": "tokenId",
          "type": "uint256"
        },
        {
          "internalType": "bytes",
          "name": "_data",
          "type": "bytes"
        }
      ],
      "name": "safeTransferFrom",
      "outputs": [],
      "stateMutability": "nonpayable",
      "type": "function"
    },
    {
      "inputs": [
        {
          "internalType": "address",
          "name": "operator",
          "type": "address"
        },
        {
          "internalType": "bool",
          "name": "approved",
          "type": "bool"
        }
      ],
      "name": "setApprovalForAll",
      "outputs": [],
      "stateMutability": "nonpayable",
      "type": "function"
    },
    {
      "inputs": [
        {
          "internalType": "bytes4",
          "name": "interfaceId",
          "type": "bytes4"
        }
      ],
      "name": "supportsInterface",
      "outputs": [
        {
          "internalType": "bool",
          "name": "",
          "type": "bool"
        }
      ],
      "stateMutability": "view",
      "type": "function",
      "constant": true
    },
    {
      "inputs": [],
      "name": "symbol",
      "outputs": [
        {
          "internalType": "string",
          "name": "",
          "type": "string"
        }
      ],
      "stateMutability": "view",
      "type": "function",
      "constant": true
    },
    {
      "inputs": [
        {
          "internalType": "uint256",
          "name": "tokenId",
          "type": "uint256"
        }
      ],
      "name": "tokenURI",
      "outputs": [
        {
          "internalType": "string",
          "name": "",
          "type": "string"
        }
      ],
      "stateMutability": "view",
      "type": "function",
      "constant": true
    },
    {
      "inputs": [
        {
          "internalType": "address",
          "name": "from",
          "type": "address"
        },
        {
          "internalType": "address",
          "name": "to",
          "type": "address"
        },
        {
          "internalType": "uint256",
          "name": "tokenId",
          "type": "uint256"
        }
      ],
      "name": "transferFrom",
      "outputs": [],
      "stateMutability": "nonpayable",
      "type": "function"
    },
    {
      "inputs": [
        {
          "internalType": "uint8",
          "name": "strength",
          "type": "uint8"
        },
        {
          "internalType": "uint8",
          "name": "defence",
          "type": "uint8"
        },
        {
          "internalType": "uint8",
          "name": "health",
          "type": "uint8"
        }
      ],
      "name": "mint",
      "outputs": [],
      "stateMutability": "nonpayable",
      "type": "function"
    },
    {
      "inputs": [
        {
          "internalType": "uint256",
          "name": "id",
          "type": "uint256"
        }
      ],
      "name": "getCardStatsFromId",
      "outputs": [
        {
          "internalType": "uint8",
          "name": "",
          "type": "uint8"
        },
        {
          "internalType": "uint8",
          "name": "",
          "type": "uint8"
        },
        {
          "internalType": "uint8",
          "name": "",
          "type": "uint8"
        }
      ],
      "stateMutability": "view",
      "type": "function",
      "constant": true
    },
    {
      "inputs": [],
      "name": "getOwnerOfContract",
      "outputs": [
        {
          "internalType": "address",
          "name": "",
          "type": "address"
        }
      ],
      "stateMutability": "view",
      "type": "function",
      "constant": true
    }
  ],
  "bytecode": "0x608060405233600660006101000a81548173ffffffffffffffffffffffffffffffffffffffff021916908373ffffffffffffffffffffffffffffffffffffffff1602179055503480156200005257600080fd5b506040518060400160405280600b81526020017f436f6c6c65637469626c650000000000000000000000000000000000000000008152506040518060400160405280600381526020017f434f4c00000000000000000000000000000000000000000000000000000000008152508160009080519060200190620000d7929190620000f9565b508060019080519060200190620000f0929190620000f9565b5050506200020d565b8280546200010790620001d8565b90600052602060002090601f0160209004810192826200012b576000855562000177565b82601f106200014657805160ff191683800117855562000177565b8280016001018555821562000177579182015b828111156200017657825182559160200191906001019062000159565b5b5090506200018691906200018a565b5090565b5b80821115620001a55760008160009055506001016200018b565b5090565b7f4e487b7100000000000000000000000000000000000000000000000000000000600052602260045260246000fd5b60006002820490506001821680620001f157607f821691505b602082108103620002075762000206620001a9565b5b50919050565b6129f4806200021d6000396000f3fe608060405234801561001057600080fd5b50600436106101005760003560e01c806370a0823111610097578063b88d4fde11610066578063b88d4fde146102c1578063c87b56dd146102dd578063e6f12af91461030d578063e985e9c51461032957610100565b806370a082311461022557806395d89b4114610255578063a22cb46514610273578063ab1bac021461028f57610100565b80631567802a116100d35780631567802a1461019f57806323b872dd146101bd57806342842e0e146101d95780636352211e146101f557610100565b806301ffc9a71461010557806306fdde0314610135578063081812fc14610153578063095ea7b314610183575b600080fd5b61011f600480360381019061011a91906118a7565b610359565b60405161012c91906118ef565b60405180910390f35b61013d61043b565b60405161014a91906119a3565b60405180910390f35b61016d600480360381019061016891906119fb565b6104cd565b60405161017a9190611a69565b60405180910390f35b61019d60048036038101906101989190611ab0565b610552565b005b6101a7610669565b6040516101b49190611a69565b60405180910390f35b6101d760048036038101906101d29190611af0565b610693565b005b6101f360048036038101906101ee9190611af0565b6106f3565b005b61020f600480360381019061020a91906119fb565b610713565b60405161021c9190611a69565b60405180910390f35b61023f600480360381019061023a9190611b43565b6107c4565b60405161024c9190611b7f565b60405180910390f35b61025d61087b565b60405161026a91906119a3565b60405180910390f35b61028d60048036038101906102889190611bc6565b61090d565b005b6102a960048036038101906102a491906119fb565b610923565b6040516102b893929190611c22565b60405180910390f35b6102db60048036038101906102d69190611d8e565b6109c2565b005b6102f760048036038101906102f291906119fb565b610a24565b60405161030491906119a3565b60405180910390f35b61032760048036038101906103229190611e3d565b610acb565b005b610343600480360381019061033e9190611e90565b610c00565b60405161035091906118ef565b60405180910390f35b60007f80ac58cd000000000000000000000000000000000000000000000000000000007bffffffffffffffffffffffffffffffffffffffffffffffffffffffff1916827bffffffffffffffffffffffffffffffffffffffffffffffffffffffff1916148061042457507f5b5e139f000000000000000000000000000000000000000000000000000000007bffffffffffffffffffffffffffffffffffffffffffffffffffffffff1916827bffffffffffffffffffffffffffffffffffffffffffffffffffffffff1916145b80610434575061043382610c94565b5b9050919050565b60606000805461044a90611eff565b80601f016020809104026020016040519081016040528092919081815260200182805461047690611eff565b80156104c35780601f10610498576101008083540402835291602001916104c3565b820191906000526020600020905b8154815290600101906020018083116104a657829003601f168201915b5050505050905090565b60006104d882610cfe565b610517576040517f08c379a000000000000000000000000000000000000000000000000000000000815260040161050e90611fa2565b60405180910390fd5b6004600083815260200190815260200160002060009054906101000a900473ffffffffffffffffffffffffffffffffffffffff169050919050565b600061055d82610713565b90508073ffffffffffffffffffffffffffffffffffffffff168373ffffffffffffffffffffffffffffffffffffffff16036105cd576040517f08c379a00000000000000000000000000000000000000000000000000000000081526004016105c490612034565b60405180910390fd5b8073ffffffffffffffffffffffffffffffffffffffff166105ec610d6a565b73ffffffffffffffffffffffffffffffffffffffff16148061061b575061061a81610615610d6a565b610c00565b5b61065a576040517f08c379a0000000000000000000000000000000000000000000000000000000008152600401610651906120c6565b60405180910390fd5b6106648383610d72565b505050565b6000600660009054906101000a900473ffffffffffffffffffffffffffffffffffffffff16905090565b6106a461069e610d6a565b82610e2b565b6106e3576040517f08c379a00000000000000000000000000000000000000000000000000000000081526004016106da90612158565b60405180910390fd5b6106ee838383610f09565b505050565b61070e838383604051806020016040528060008152506109c2565b505050565b6000806002600084815260200190815260200160002060009054906101000a900473ffffffffffffffffffffffffffffffffffffffff169050600073ffffffffffffffffffffffffffffffffffffffff168173ffffffffffffffffffffffffffffffffffffffff16036107bb576040517f08c379a00000000000000000000000000000000000000000000000000000000081526004016107b2906121ea565b60405180910390fd5b80915050919050565b60008073ffffffffffffffffffffffffffffffffffffffff168273ffffffffffffffffffffffffffffffffffffffff1603610834576040517f08c379a000000000000000000000000000000000000000000000000000000000815260040161082b9061227c565b60405180910390fd5b600360008373ffffffffffffffffffffffffffffffffffffffff1673ffffffffffffffffffffffffffffffffffffffff168152602001908152602001600020549050919050565b60606001805461088a90611eff565b80601f01602080910402602001604051908101604052809291908181526020018280546108b690611eff565b80156109035780601f106108d857610100808354040283529160200191610903565b820191906000526020600020905b8154815290600101906020018083116108e657829003601f168201915b5050505050905090565b61091f610918610d6a565b838361116f565b5050565b60008060006007848154811061093c5761093b61229c565b5b9060005260206000200160000160009054906101000a900460ff166007858154811061096b5761096a61229c565b5b9060005260206000200160000160019054906101000a900460ff166007868154811061099a5761099961229c565b5b9060005260206000200160000160029054906101000a900460ff169250925092509193909250565b6109d36109cd610d6a565b83610e2b565b610a12576040517f08c379a0000000000000000000000000000000000000000000000000000000008152600401610a0990612158565b60405180910390fd5b610a1e848484846112db565b50505050565b6060610a2f82610cfe565b610a6e576040517f08c379a0000000000000000000000000000000000000000000000000000000008152600401610a659061233d565b60405180910390fd5b6000610a78611337565b90506000815111610a985760405180602001604052806000815250610ac3565b80610aa28461134e565b604051602001610ab3929190612399565b6040516020818303038152906040525b915050919050565b600660009054906101000a900473ffffffffffffffffffffffffffffffffffffffff1673ffffffffffffffffffffffffffffffffffffffff163373ffffffffffffffffffffffffffffffffffffffff1614610b2557600080fd5b600760405180606001604052808560ff1681526020018460ff1681526020018360ff168152509080600181540180825580915050600190039060005260206000200160009091909190915060008201518160000160006101000a81548160ff021916908360ff16021790555060208201518160000160016101000a81548160ff021916908360ff16021790555060408201518160000160026101000a81548160ff021916908360ff1602179055505050600060086000815480929190610bea906123ec565b919050559050610bfa33826114ae565b50505050565b6000600560008473ffffffffffffffffffffffffffffffffffffffff1673ffffffffffffffffffffffffffffffffffffffff16815260200190815260200160002060008373ffffffffffffffffffffffffffffffffffffffff1673ffffffffffffffffffffffffffffffffffffffff16815260200190815260200160002060009054906101000a900460ff16905092915050565b60007f01ffc9a7000000000000000000000000000000000000000000000000000000007bffffffffffffffffffffffffffffffffffffffffffffffffffffffff1916827bffffffffffffffffffffffffffffffffffffffffffffffffffffffff1916149050919050565b60008073ffffffffffffffffffffffffffffffffffffffff166002600084815260200190815260200160002060009054906101000a900473ffffffffffffffffffffffffffffffffffffffff1673ffffffffffffffffffffffffffffffffffffffff1614159050919050565b600033905090565b816004600083815260200190815260200160002060006101000a81548173ffffffffffffffffffffffffffffffffffffffff021916908373ffffffffffffffffffffffffffffffffffffffff160217905550808273ffffffffffffffffffffffffffffffffffffffff16610de583610713565b73ffffffffffffffffffffffffffffffffffffffff167f8c5be1e5ebec7d5bd14f71427d1e84f3dd0314c0f7b2291e5b200ac8c7c3b92560405160405180910390a45050565b6000610e3682610cfe565b610e75576040517f08c379a0000000000000000000000000000000000000000000000000000000008152600401610e6c906124a6565b60405180910390fd5b6000610e8083610713565b90508073ffffffffffffffffffffffffffffffffffffffff168473ffffffffffffffffffffffffffffffffffffffff161480610eef57508373ffffffffffffffffffffffffffffffffffffffff16610ed7846104cd565b73ffffffffffffffffffffffffffffffffffffffff16145b80610f005750610eff8185610c00565b5b91505092915050565b8273ffffffffffffffffffffffffffffffffffffffff16610f2982610713565b73ffffffffffffffffffffffffffffffffffffffff1614610f7f576040517f08c379a0000000000000000000000000000000000000000000000000000000008152600401610f7690612538565b60405180910390fd5b600073ffffffffffffffffffffffffffffffffffffffff168273ffffffffffffffffffffffffffffffffffffffff1603610fee576040517f08c379a0000000000000000000000000000000000000000000000000000000008152600401610fe5906125ca565b60405180910390fd5b610ff9838383611687565b611004600082610d72565b6001600360008573ffffffffffffffffffffffffffffffffffffffff1673ffffffffffffffffffffffffffffffffffffffff168152602001908152602001600020600082825461105491906125ea565b925050819055506001600360008473ffffffffffffffffffffffffffffffffffffffff1673ffffffffffffffffffffffffffffffffffffffff16815260200190815260200160002060008282546110ab919061261e565b92505081905550816002600083815260200190815260200160002060006101000a81548173ffffffffffffffffffffffffffffffffffffffff021916908373ffffffffffffffffffffffffffffffffffffffff160217905550808273ffffffffffffffffffffffffffffffffffffffff168473ffffffffffffffffffffffffffffffffffffffff167fddf252ad1be2c89b69c2b068fc378daa952ba7f163c4a11628f55a4df523b3ef60405160405180910390a461116a83838361168c565b505050565b8173ffffffffffffffffffffffffffffffffffffffff168373ffffffffffffffffffffffffffffffffffffffff16036111dd576040517f08c379a00000000000000000000000000000000000000000000000000000000081526004016111d4906126c0565b60405180910390fd5b80600560008573ffffffffffffffffffffffffffffffffffffffff1673ffffffffffffffffffffffffffffffffffffffff16815260200190815260200160002060008473ffffffffffffffffffffffffffffffffffffffff1673ffffffffffffffffffffffffffffffffffffffff16815260200190815260200160002060006101000a81548160ff0219169083151502179055508173ffffffffffffffffffffffffffffffffffffffff168373ffffffffffffffffffffffffffffffffffffffff167f17307eab39ab6107e8899845ad3d59bd9653f200f220920489ca2b5937696c31836040516112ce91906118ef565b60405180910390a3505050565b6112e6848484610f09565b6112f284848484611691565b611331576040517f08c379a000000000000000000000000000000000000000000000000000000000815260040161132890612752565b60405180910390fd5b50505050565b606060405180602001604052806000815250905090565b606060008203611395576040518060400160405280600181526020017f300000000000000000000000000000000000000000000000000000000000000081525090506114a9565b600082905060005b600082146113c75780806113b0906123ec565b915050600a826113c091906127a1565b915061139d565b60008167ffffffffffffffff8111156113e3576113e2611c63565b5b6040519080825280601f01601f1916602001820160405280156114155781602001600182028036833780820191505090505b5090505b600085146114a25760018261142e91906125ea565b9150600a8561143d91906127d2565b6030611449919061261e565b60f81b81838151811061145f5761145e61229c565b5b60200101907effffffffffffffffffffffffffffffffffffffffffffffffffffffffffffff1916908160001a905350600a8561149b91906127a1565b9450611419565b8093505050505b919050565b600073ffffffffffffffffffffffffffffffffffffffff168273ffffffffffffffffffffffffffffffffffffffff160361151d576040517f08c379a00000000000000000000000000000000000000000000000000000000081526004016115149061284f565b60405180910390fd5b61152681610cfe565b15611566576040517f08c379a000000000000000000000000000000000000000000000000000000000815260040161155d906128bb565b60405180910390fd5b61157260008383611687565b6001600360008473ffffffffffffffffffffffffffffffffffffffff1673ffffffffffffffffffffffffffffffffffffffff16815260200190815260200160002060008282546115c2919061261e565b92505081905550816002600083815260200190815260200160002060006101000a81548173ffffffffffffffffffffffffffffffffffffffff021916908373ffffffffffffffffffffffffffffffffffffffff160217905550808273ffffffffffffffffffffffffffffffffffffffff16600073ffffffffffffffffffffffffffffffffffffffff167fddf252ad1be2c89b69c2b068fc378daa952ba7f163c4a11628f55a4df523b3ef60405160405180910390a46116836000838361168c565b5050565b505050565b505050565b60006116b28473ffffffffffffffffffffffffffffffffffffffff16611818565b1561180b578373ffffffffffffffffffffffffffffffffffffffff1663150b7a026116db610d6a565b8786866040518563ffffffff1660e01b81526004016116fd9493929190612930565b6020604051808303816000875af192505050801561173957506040513d601f19601f820116820180604052508101906117369190612991565b60015b6117bb573d8060008114611769576040519150601f19603f3d011682016040523d82523d6000602084013e61176e565b606091505b5060008151036117b3576040517f08c379a00000000000000000000000000000000000000000000000000000000081526004016117aa90612752565b60405180910390fd5b805181602001fd5b63150b7a0260e01b7bffffffffffffffffffffffffffffffffffffffffffffffffffffffff1916817bffffffffffffffffffffffffffffffffffffffffffffffffffffffff191614915050611810565b600190505b949350505050565b6000808273ffffffffffffffffffffffffffffffffffffffff163b119050919050565b6000604051905090565b600080fd5b600080fd5b60007fffffffff0000000000000000000000000000000000000000000000000000000082169050919050565b6118848161184f565b811461188f57600080fd5b50565b6000813590506118a18161187b565b92915050565b6000602082840312156118bd576118bc611845565b5b60006118cb84828501611892565b91505092915050565b60008115159050919050565b6118e9816118d4565b82525050565b600060208201905061190460008301846118e0565b92915050565b600081519050919050565b600082825260208201905092915050565b60005b83811015611944578082015181840152602081019050611929565b83811115611953576000848401525b50505050565b6000601f19601f8301169050919050565b60006119758261190a565b61197f8185611915565b935061198f818560208601611926565b61199881611959565b840191505092915050565b600060208201905081810360008301526119bd818461196a565b905092915050565b6000819050919050565b6119d8816119c5565b81146119e357600080fd5b50565b6000813590506119f5816119cf565b92915050565b600060208284031215611a1157611a10611845565b5b6000611a1f848285016119e6565b91505092915050565b600073ffffffffffffffffffffffffffffffffffffffff82169050919050565b6000611a5382611a28565b9050919050565b611a6381611a48565b82525050565b6000602082019050611a7e6000830184611a5a565b92915050565b611a8d81611a48565b8114611a9857600080fd5b50565b600081359050611aaa81611a84565b92915050565b60008060408385031215611ac757611ac6611845565b5b6000611ad585828601611a9b565b9250506020611ae6858286016119e6565b9150509250929050565b600080600060608486031215611b0957611b08611845565b5b6000611b1786828701611a9b565b9350506020611b2886828701611a9b565b9250506040611b39868287016119e6565b9150509250925092565b600060208284031215611b5957611b58611845565b5b6000611b6784828501611a9b565b91505092915050565b611b79816119c5565b82525050565b6000602082019050611b946000830184611b70565b92915050565b611ba3816118d4565b8114611bae57600080fd5b50565b600081359050611bc081611b9a565b92915050565b60008060408385031215611bdd57611bdc611845565b5b6000611beb85828601611a9b565b9250506020611bfc85828601611bb1565b9150509250929050565b600060ff82169050919050565b611c1c81611c06565b82525050565b6000606082019050611c376000830186611c13565b611c446020830185611c13565b611c516040830184611c13565b949350505050565b600080fd5b600080fd5b7f4e487b7100000000000000000000000000000000000000000000000000000000600052604160045260246000fd5b611c9b82611959565b810181811067ffffffffffffffff82111715611cba57611cb9611c63565b5b80604052505050565b6000611ccd61183b565b9050611cd98282611c92565b919050565b600067ffffffffffffffff821115611cf957611cf8611c63565b5b611d0282611959565b9050602081019050919050565b82818337600083830152505050565b6000611d31611d2c84611cde565b611cc3565b905082815260208101848484011115611d4d57611d4c611c5e565b5b611d58848285611d0f565b509392505050565b600082601f830112611d7557611d74611c59565b5b8135611d85848260208601611d1e565b91505092915050565b60008060008060808587031215611da857611da7611845565b5b6000611db687828801611a9b565b9450506020611dc787828801611a9b565b9350506040611dd8878288016119e6565b925050606085013567ffffffffffffffff811115611df957611df861184a565b5b611e0587828801611d60565b91505092959194509250565b611e1a81611c06565b8114611e2557600080fd5b50565b600081359050611e3781611e11565b92915050565b600080600060608486031215611e5657611e55611845565b5b6000611e6486828701611e28565b9350506020611e7586828701611e28565b9250506040611e8686828701611e28565b9150509250925092565b60008060408385031215611ea757611ea6611845565b5b6000611eb585828601611a9b565b9250506020611ec685828601611a9b565b9150509250929050565b7f4e487b7100000000000000000000000000000000000000000000000000000000600052602260045260246000fd5b60006002820490506001821680611f1757607f821691505b602082108103611f2a57611f29611ed0565b5b50919050565b7f4552433732313a20617070726f76656420717565727920666f72206e6f6e657860008201527f697374656e7420746f6b656e0000000000000000000000000000000000000000602082015250565b6000611f8c602c83611915565b9150611f9782611f30565b604082019050919050565b60006020820190508181036000830152611fbb81611f7f565b9050919050565b7f4552433732313a20617070726f76616c20746f2063757272656e74206f776e6560008201527f7200000000000000000000000000000000000000000000000000000000000000602082015250565b600061201e602183611915565b915061202982611fc2565b604082019050919050565b6000602082019050818103600083015261204d81612011565b9050919050565b7f4552433732313a20617070726f76652063616c6c6572206973206e6f74206f7760008201527f6e6572206e6f7220617070726f76656420666f7220616c6c0000000000000000602082015250565b60006120b0603883611915565b91506120bb82612054565b604082019050919050565b600060208201905081810360008301526120df816120a3565b9050919050565b7f4552433732313a207472616e736665722063616c6c6572206973206e6f74206f60008201527f776e6572206e6f7220617070726f766564000000000000000000000000000000602082015250565b6000612142603183611915565b915061214d826120e6565b604082019050919050565b6000602082019050818103600083015261217181612135565b9050919050565b7f4552433732313a206f776e657220717565727920666f72206e6f6e657869737460008201527f656e7420746f6b656e0000000000000000000000000000000000000000000000602082015250565b60006121d4602983611915565b91506121df82612178565b604082019050919050565b60006020820190508181036000830152612203816121c7565b9050919050565b7f4552433732313a2062616c616e636520717565727920666f7220746865207a6560008201527f726f206164647265737300000000000000000000000000000000000000000000602082015250565b6000612266602a83611915565b91506122718261220a565b604082019050919050565b6000602082019050818103600083015261229581612259565b9050919050565b7f4e487b7100000000000000000000000000000000000000000000000000000000600052603260045260246000fd5b7f4552433732314d657461646174613a2055524920717565727920666f72206e6f60008201527f6e6578697374656e7420746f6b656e0000000000000000000000000000000000602082015250565b6000612327602f83611915565b9150612332826122cb565b604082019050919050565b600060208201905081810360008301526123568161231a565b9050919050565b600081905092915050565b60006123738261190a565b61237d818561235d565b935061238d818560208601611926565b80840191505092915050565b60006123a58285612368565b91506123b18284612368565b91508190509392505050565b7f4e487b7100000000000000000000000000000000000000000000000000000000600052601160045260246000fd5b60006123f7826119c5565b91507fffffffffffffffffffffffffffffffffffffffffffffffffffffffffffffffff8203612429576124286123bd565b5b600182019050919050565b7f4552433732313a206f70657261746f7220717565727920666f72206e6f6e657860008201527f697374656e7420746f6b656e0000000000000000000000000000000000000000602082015250565b6000612490602c83611915565b915061249b82612434565b604082019050919050565b600060208201905081810360008301526124bf81612483565b9050919050565b7f4552433732313a207472616e736665722066726f6d20696e636f72726563742060008201527f6f776e6572000000000000000000000000000000000000000000000000000000602082015250565b6000612522602583611915565b915061252d826124c6565b604082019050919050565b6000602082019050818103600083015261255181612515565b9050919050565b7f4552433732313a207472616e7366657220746f20746865207a65726f2061646460008201527f7265737300000000000000000000000000000000000000000000000000000000602082015250565b60006125b4602483611915565b91506125bf82612558565b604082019050919050565b600060208201905081810360008301526125e3816125a7565b9050919050565b60006125f5826119c5565b9150612600836119c5565b925082821015612613576126126123bd565b5b828203905092915050565b6000612629826119c5565b9150612634836119c5565b9250827fffffffffffffffffffffffffffffffffffffffffffffffffffffffffffffffff03821115612669576126686123bd565b5b828201905092915050565b7f4552433732313a20617070726f766520746f2063616c6c657200000000000000600082015250565b60006126aa601983611915565b91506126b582612674565b602082019050919050565b600060208201905081810360008301526126d98161269d565b9050919050565b7f4552433732313a207472616e7366657220746f206e6f6e20455243373231526560008201527f63656976657220696d706c656d656e7465720000000000000000000000000000602082015250565b600061273c603283611915565b9150612747826126e0565b604082019050919050565b6000602082019050818103600083015261276b8161272f565b9050919050565b7f4e487b7100000000000000000000000000000000000000000000000000000000600052601260045260246000fd5b60006127ac826119c5565b91506127b7836119c5565b9250826127c7576127c6612772565b5b828204905092915050565b60006127dd826119c5565b91506127e8836119c5565b9250826127f8576127f7612772565b5b828206905092915050565b7f4552433732313a206d696e7420746f20746865207a65726f2061646472657373600082015250565b6000612839602083611915565b915061284482612803565b602082019050919050565b600060208201905081810360008301526128688161282c565b9050919050565b7f4552433732313a20746f6b656e20616c7265616479206d696e74656400000000600082015250565b60006128a5601c83611915565b91506128b08261286f565b602082019050919050565b600060208201905081810360008301526128d481612898565b9050919050565b600081519050919050565b600082825260208201905092915050565b6000612902826128db565b61290c81856128e6565b935061291c818560208601611926565b61292581611959565b840191505092915050565b60006080820190506129456000830187611a5a565b6129526020830186611a5a565b61295f6040830185611b70565b818103606083015261297181846128f7565b905095945050505050565b60008151905061298b8161187b565b92915050565b6000602082840312156129a7576129a6611845565b5b60006129b58482850161297c565b9150509291505056fea26469706673582212207f6bc7888717a01ee57f64b70e2c4c80472e66184e6eba048c6ed429d5296bba64736f6c634300080d0033",
  "immutableReferences": {},
  "source": "// SPDX-License-Identifier: MIT\npragma solidity ^0.8.0;\nimport \"@openzeppelin/contracts/token/ERC721/ERC721.sol\";\n\ncontract Collectible is ERC721 {\n  constructor() ERC721(\"Collectible\", \"COL\") {}\n  \n  address _owner = msg.sender;\n\n  struct Card {\n  uint8 strength;\n  uint8 defence;\n  uint8 health;\n  }\n\n  Card[] cards;\n  uint256 cardCount;\n\n  function mint(uint8 strength, uint8 defence, uint8 health) public {\n    require(msg.sender == _owner);\n    cards.push(Card(strength, defence, health));\n    uint256 _id = cardCount++;\n    _mint(msg.sender, _id);\n  }\n\n  function getCardStatsFromId(uint id) public view returns(uint8, uint8, uint8) {\n    return (cards[id].strength, cards[id].defence, cards[id].health);\n  }\n  \n  function getOwnerOfContract() public view returns (address){\n      return _owner;\n  }\n}\n",
  "sourcePath": "C:\\Users\\65911\\Desktop\\NUS\\Semester 2\\FT5004 Blockchain prog\\lab5-solution\\contracts\\Collectible.sol",
  "compiler": {
    "name": "solc",
    "version": "0.8.13+commit.abaa5c0e.Emscripten.clang"
  },
  "schemaVersion": "3.4.6",
  "updatedAt": "2022-04-12T10:03:13.931Z",
  "networkType": "ethereum",
  "devdoc": {
    "kind": "dev",
    "methods": {
      "approve(address,uint256)": {
        "details": "See {IERC721-approve}."
      },
      "balanceOf(address)": {
        "details": "See {IERC721-balanceOf}."
      },
      "getApproved(uint256)": {
        "details": "See {IERC721-getApproved}."
      },
      "isApprovedForAll(address,address)": {
        "details": "See {IERC721-isApprovedForAll}."
      },
      "name()": {
        "details": "See {IERC721Metadata-name}."
      },
      "ownerOf(uint256)": {
        "details": "See {IERC721-ownerOf}."
      },
      "safeTransferFrom(address,address,uint256)": {
        "details": "See {IERC721-safeTransferFrom}."
      },
      "safeTransferFrom(address,address,uint256,bytes)": {
        "details": "See {IERC721-safeTransferFrom}."
      },
      "setApprovalForAll(address,bool)": {
        "details": "See {IERC721-setApprovalForAll}."
      },
      "supportsInterface(bytes4)": {
        "details": "See {IERC165-supportsInterface}."
      },
      "symbol()": {
        "details": "See {IERC721Metadata-symbol}."
      },
      "tokenURI(uint256)": {
        "details": "See {IERC721Metadata-tokenURI}."
      },
      "transferFrom(address,address,uint256)": {
        "details": "See {IERC721-transferFrom}."
      }
    },
    "version": 1
  },
  "userdoc": {
    "kind": "user",
    "methods": {},
    "version": 1
  }
}