{
  "contractName": "CollectibleMarketPlace",
  "abi": [
    {
      "inputs": [
        {
          "internalType": "contract IERC721",
          "name": "collectibleAddress",
          "type": "address"
        },
        {
          "internalType": "contract IERC20",
          "name": "ercAddress",
          "type": "address"
        },
        {
          "internalType": "uint256",
          "name": "fee",
          "type": "uint256"
        }
      ],
      "stateMutability": "nonpayable",
      "type": "constructor"
    },
    {
      "inputs": [],
      "name": "comissionFee",
      "outputs": [
        {
          "internalType": "uint256",
          "name": "",
          "type": "uint256"
        }
      ],
      "stateMutability": "view",
      "type": "function",
      "constant": true
    },
    {
      "inputs": [
        {
          "internalType": "uint256",
          "name": "cardId",
          "type": "uint256"
        },
        {
          "internalType": "uint256",
          "name": "price",
          "type": "uint256"
        }
      ],
      "name": "list",
      "outputs": [],
      "stateMutability": "nonpayable",
      "type": "function"
    },
    {
      "inputs": [
        {
          "internalType": "uint256",
          "name": "cardId",
          "type": "uint256"
        }
      ],
      "name": "unlist",
      "outputs": [],
      "stateMutability": "nonpayable",
      "type": "function"
    },
    {
      "inputs": [
        {
          "internalType": "uint256",
          "name": "id",
          "type": "uint256"
        }
      ],
      "name": "getPrice",
      "outputs": [
        {
          "internalType": "uint256",
          "name": "",
          "type": "uint256"
        }
      ],
      "stateMutability": "view",
      "type": "function",
      "constant": true
    },
    {
      "inputs": [
        {
          "internalType": "uint256",
          "name": "id",
          "type": "uint256"
        }
      ],
      "name": "buy",
      "outputs": [],
      "stateMutability": "payable",
      "type": "function",
      "payable": true
    },
    {
      "inputs": [],
      "name": "getContractOwner",
      "outputs": [
        {
          "internalType": "address",
          "name": "",
          "type": "address"
        }
      ],
      "stateMutability": "view",
      "type": "function",
      "constant": true
    },
    {
      "inputs": [
        {
          "internalType": "uint256",
          "name": "cardId",
          "type": "uint256"
        }
      ],
      "name": "getCardOwner",
      "outputs": [
        {
          "internalType": "address",
          "name": "",
          "type": "address"
        }
      ],
      "stateMutability": "view",
      "type": "function",
      "constant": true
    }
  ],
  "bytecode": "0x608060405233600360006101000a81548173ffffffffffffffffffffffffffffffffffffffff021916908373ffffffffffffffffffffffffffffffffffffffff1602179055503480156200005257600080fd5b5060405162000e2338038062000e23833981810160405281019062000078919062000207565b826000806101000a81548173ffffffffffffffffffffffffffffffffffffffff021916908373ffffffffffffffffffffffffffffffffffffffff16021790555081600160006101000a81548173ffffffffffffffffffffffffffffffffffffffff021916908373ffffffffffffffffffffffffffffffffffffffff1602179055508060028190555050505062000263565b600080fd5b600073ffffffffffffffffffffffffffffffffffffffff82169050919050565b60006200013b826200010e565b9050919050565b60006200014f826200012e565b9050919050565b620001618162000142565b81146200016d57600080fd5b50565b600081519050620001818162000156565b92915050565b600062000194826200012e565b9050919050565b620001a68162000187565b8114620001b257600080fd5b50565b600081519050620001c6816200019b565b92915050565b6000819050919050565b620001e181620001cc565b8114620001ed57600080fd5b50565b6000815190506200020181620001d6565b92915050565b60008060006060848603121562000223576200022262000109565b5b6000620002338682870162000170565b93505060206200024686828701620001b5565b92505060406200025986828701620001f0565b9150509250925092565b610bb080620002736000396000f3fe6080604052600436106100705760003560e01c8063741a75911161004e578063741a759114610106578063bf5a4dd314610131578063d96a094a1461015a578063e75722301461017657610070565b8063010abbd014610075578063442890d5146100b257806350fd7367146100dd575b600080fd5b34801561008157600080fd5b5061009c6004803603810190610097919061085c565b6101b3565b6040516100a991906108ca565b60405180910390f35b3480156100be57600080fd5b506100c7610257565b6040516100d491906108ca565b60405180910390f35b3480156100e957600080fd5b5061010460048036038101906100ff91906108e5565b610281565b005b34801561011257600080fd5b5061011b610400565b6040516101289190610934565b60405180910390f35b34801561013d57600080fd5b506101586004803603810190610153919061085c565b610406565b005b610174600480360381019061016f919061085c565b6104a7565b005b34801561018257600080fd5b5061019d6004803603810190610198919061085c565b6107bf565b6040516101aa9190610934565b60405180910390f35b60008060009054906101000a900473ffffffffffffffffffffffffffffffffffffffff1673ffffffffffffffffffffffffffffffffffffffff16636352211e836040518263ffffffff1660e01b815260040161020f9190610934565b602060405180830381865afa15801561022c573d6000803e3d6000fd5b505050506040513d601f19601f82011682018060405250810190610250919061097b565b9050919050565b6000600360009054906101000a900473ffffffffffffffffffffffffffffffffffffffff16905090565b61028a826101b3565b73ffffffffffffffffffffffffffffffffffffffff163373ffffffffffffffffffffffffffffffffffffffff16146102c157600080fd5b3073ffffffffffffffffffffffffffffffffffffffff1660008054906101000a900473ffffffffffffffffffffffffffffffffffffffff1673ffffffffffffffffffffffffffffffffffffffff1663081812fc846040518263ffffffff1660e01b81526004016103319190610934565b602060405180830381865afa15801561034e573d6000803e3d6000fd5b505050506040513d601f19601f82011682018060405250810190610372919061097b565b73ffffffffffffffffffffffffffffffffffffffff161461039257600080fd5b600254816103a091906109d7565b6004600084815260200190815260200160002060006103be856101b3565b73ffffffffffffffffffffffffffffffffffffffff1673ffffffffffffffffffffffffffffffffffffffff168152602001908152602001600020819055505050565b60025481565b61040f816101b3565b73ffffffffffffffffffffffffffffffffffffffff163373ffffffffffffffffffffffffffffffffffffffff161461044657600080fd5b6000600460008381526020019081526020016000206000610466846101b3565b73ffffffffffffffffffffffffffffffffffffffff1673ffffffffffffffffffffffffffffffffffffffff1681526020019081526020016000208190555050565b60006004600083815260200190815260200160002060006104c7846101b3565b73ffffffffffffffffffffffffffffffffffffffff1673ffffffffffffffffffffffffffffffffffffffff16815260200190815260200160002054905060008103610547576040517f08c379a000000000000000000000000000000000000000000000000000000000815260040161053e90610a8a565b60405180910390fd5b6000600460008481526020019081526020016000206000610567856101b3565b73ffffffffffffffffffffffffffffffffffffffff1673ffffffffffffffffffffffffffffffffffffffff16815260200190815260200160002081905550600160009054906101000a900473ffffffffffffffffffffffffffffffffffffffff1673ffffffffffffffffffffffffffffffffffffffff166323b872dd33600360009054906101000a900473ffffffffffffffffffffffffffffffffffffffff166002546040518463ffffffff1660e01b815260040161062893929190610aaa565b6020604051808303816000875af1158015610647573d6000803e3d6000fd5b505050506040513d601f19601f8201168201806040525081019061066b9190610b19565b50600160009054906101000a900473ffffffffffffffffffffffffffffffffffffffff1673ffffffffffffffffffffffffffffffffffffffff166323b872dd336106b4856101b3565b600254856106c29190610b46565b6040518463ffffffff1660e01b81526004016106e093929190610aaa565b6020604051808303816000875af11580156106ff573d6000803e3d6000fd5b505050506040513d601f19601f820116820180604052508101906107239190610b19565b5060008054906101000a900473ffffffffffffffffffffffffffffffffffffffff1673ffffffffffffffffffffffffffffffffffffffff166323b872dd610769846101b3565b33856040518463ffffffff1660e01b815260040161078993929190610aaa565b600060405180830381600087803b1580156107a357600080fd5b505af11580156107b7573d6000803e3d6000fd5b505050505050565b60006004600083815260200190815260200160002060006107df846101b3565b73ffffffffffffffffffffffffffffffffffffffff1673ffffffffffffffffffffffffffffffffffffffff168152602001908152602001600020549050919050565b600080fd5b6000819050919050565b61083981610826565b811461084457600080fd5b50565b60008135905061085681610830565b92915050565b60006020828403121561087257610871610821565b5b600061088084828501610847565b91505092915050565b600073ffffffffffffffffffffffffffffffffffffffff82169050919050565b60006108b482610889565b9050919050565b6108c4816108a9565b82525050565b60006020820190506108df60008301846108bb565b92915050565b600080604083850312156108fc576108fb610821565b5b600061090a85828601610847565b925050602061091b85828601610847565b9150509250929050565b61092e81610826565b82525050565b60006020820190506109496000830184610925565b92915050565b610958816108a9565b811461096357600080fd5b50565b6000815190506109758161094f565b92915050565b60006020828403121561099157610990610821565b5b600061099f84828501610966565b91505092915050565b7f4e487b7100000000000000000000000000000000000000000000000000000000600052601160045260246000fd5b60006109e282610826565b91506109ed83610826565b9250827fffffffffffffffffffffffffffffffffffffffffffffffffffffffffffffffff03821115610a2257610a216109a8565b5b828201905092915050565b600082825260208201905092915050565b7f4e6f74206c697374656400000000000000000000000000000000000000000000600082015250565b6000610a74600a83610a2d565b9150610a7f82610a3e565b602082019050919050565b60006020820190508181036000830152610aa381610a67565b9050919050565b6000606082019050610abf60008301866108bb565b610acc60208301856108bb565b610ad96040830184610925565b949350505050565b60008115159050919050565b610af681610ae1565b8114610b0157600080fd5b50565b600081519050610b1381610aed565b92915050565b600060208284031215610b2f57610b2e610821565b5b6000610b3d84828501610b04565b91505092915050565b6000610b5182610826565b9150610b5c83610826565b925082821015610b6f57610b6e6109a8565b5b82820390509291505056fea26469706673582212200ba3064ced9dfdd4616aee3b1ae92f5bf02f7c003c3d2bd15796011364ff496864736f6c634300080d0033",
  "immutableReferences": {},
  "source": "// SPDX-License-Identifier: MIT\npragma solidity ^0.8.0;\nimport \"@openzeppelin/contracts/token/ERC721/IERC721.sol\";\nimport \"@openzeppelin/contracts/token/ERC20/IERC20.sol\";\n\n\ncontract CollectibleMarketPlace {\n\n    //references to NFT and ERC20 token\n    IERC721 collectibleContract;\n    IERC20 erc20Contract;\n\n    uint256 public comissionFee;\n    address _owner = msg.sender;\n\n    //card listings\n    mapping(uint256 => mapping(address => uint256)) cardPrice;\n\n    constructor(IERC721 collectibleAddress, IERC20 ercAddress ,uint256 fee) {\n        collectibleContract = collectibleAddress;\n        erc20Contract = ercAddress;\n        comissionFee = fee;\n    }\n\n    //list a dice for sale. Price needs to be >= value + fee\n\n    function list(uint256 cardId, uint256 price) public {\n        require(msg.sender == getCardOwner(cardId));\n        require(collectibleContract.getApproved(cardId) == address(this));\n        cardPrice[cardId][getCardOwner(cardId)] = price + comissionFee;\n    }\n\n    function unlist(uint256 cardId) public {\n        require(msg.sender == getCardOwner(cardId));\n        cardPrice[cardId][getCardOwner(cardId)] = 0;\n    }\n\n    // get price of dice\n    function getPrice(uint256 id) public view returns (uint256) {\n        return cardPrice[id][getCardOwner(id)];\n    }\n\n    // Buy the dice at the requested price\n    function buy(uint256 id) public  payable {        \n        uint256 price = cardPrice[id][getCardOwner(id)];\n        require(price != 0, \"Not listed\");\n        cardPrice[id][getCardOwner(id)] = 0;\n\n        erc20Contract.transferFrom(msg.sender, _owner, comissionFee);\n        erc20Contract.transferFrom(msg.sender, getCardOwner(id), (price - comissionFee));\n        collectibleContract.transferFrom(getCardOwner(id), msg.sender, id);\n    }\n    \n    function getContractOwner() public view returns(address) {\n        return _owner;\n    }\n\n    function getCardOwner(uint256 cardId) public view returns(address){\n        return collectibleContract.ownerOf(cardId);\n    }\n\n}\n",
  "sourcePath": "C:\\Users\\65911\\Desktop\\NUS\\Semester 2\\FT5004 Blockchain prog\\lab5-solution\\contracts\\CollectibleMarketPlace.sol",
  "compiler": {
    "name": "solc",
    "version": "0.8.13+commit.abaa5c0e.Emscripten.clang"
  },
  "schemaVersion": "3.4.6",
  "updatedAt": "2022-04-12T10:03:13.954Z",
  "networkType": "ethereum",
  "devdoc": {
    "kind": "dev",
    "methods": {},
    "version": 1
  },
  "userdoc": {
    "kind": "user",
    "methods": {},
    "version": 1
  }
}